{
  "_format": "hh-sol-artifact-1",
  "contractName": "Upload",
  "sourceName": "contracts/Upload.sol",
  "abi": [
    {
      "anonymous": false,
      "inputs": [
        {
          "indexed": false,
          "internalType": "string",
          "name": "documentUrl",
          "type": "string"
        },
        {
          "indexed": false,
          "internalType": "address",
          "name": "signedBy",
          "type": "address"
        }
      ],
      "name": "DocumentSigned",
      "type": "event"
    },
    {
      "anonymous": false,
      "inputs": [
        {
          "indexed": true,
          "internalType": "address",
          "name": "user",
          "type": "address"
        },
        {
          "indexed": false,
          "internalType": "string",
          "name": "documentUrl",
          "type": "string"
        }
      ],
      "name": "DocumentUploaded",
      "type": "event"
    },
    {
      "inputs": [
        {
          "internalType": "address",
          "name": "_owner",
          "type": "address"
        },
        {
          "internalType": "address",
          "name": "_user",
          "type": "address"
        }
      ],
      "name": "accessListCheck",
      "outputs": [
        {
          "internalType": "bool",
          "name": "",
          "type": "bool"
        }
      ],
      "stateMutability": "view",
      "type": "function"
    },
    {
      "inputs": [
        {
          "internalType": "address",
          "name": "_user",
          "type": "address"
        },
        {
          "internalType": "string",
          "name": "url",
          "type": "string"
        }
      ],
      "name": "add",
      "outputs": [],
      "stateMutability": "nonpayable",
      "type": "function"
    },
    {
      "inputs": [
        {
          "internalType": "address",
          "name": "user",
          "type": "address"
        }
      ],
      "name": "allow",
      "outputs": [],
      "stateMutability": "nonpayable",
      "type": "function"
    },
    {
      "inputs": [
        {
          "internalType": "address",
          "name": "user",
          "type": "address"
        }
      ],
      "name": "disallow",
      "outputs": [],
      "stateMutability": "nonpayable",
      "type": "function"
    },
    {
      "inputs": [
        {
          "internalType": "address",
          "name": "_user",
          "type": "address"
        }
      ],
      "name": "display",
      "outputs": [
        {
          "internalType": "string[]",
          "name": "",
          "type": "string[]"
        }
      ],
      "stateMutability": "view",
      "type": "function"
    },
    {
      "inputs": [
        {
          "internalType": "string",
          "name": "",
          "type": "string"
        }
      ],
      "name": "documentSignatures",
      "outputs": [
        {
          "internalType": "address",
          "name": "",
          "type": "address"
        }
      ],
      "stateMutability": "view",
      "type": "function"
    },
    {
      "inputs": [
        {
          "internalType": "address",
          "name": "user",
          "type": "address"
        }
      ],
      "name": "revoke",
      "outputs": [],
      "stateMutability": "nonpayable",
      "type": "function"
    },
    {
      "inputs": [],
      "name": "shareAccess",
      "outputs": [
        {
          "components": [
            {
              "internalType": "address",
              "name": "user",
              "type": "address"
            },
            {
              "internalType": "bool",
              "name": "access",
              "type": "bool"
            }
          ],
          "internalType": "struct Upload.Access[]",
          "name": "",
          "type": "tuple[]"
        }
      ],
      "stateMutability": "view",
      "type": "function"
    }
  ],
  "bytecode": "0x608060405234801561001057600080fd5b50611a2b806100206000396000f3fe608060405234801561001057600080fd5b50600436106100885760003560e01c8063b39652db1161005b578063b39652db14610111578063bc8bef8114610141578063eb39113f1461015f578063ff9913e81461018f57610088565b806336d6da551461008d5780634fd020f6146100a957806374a8f103146100d9578063a9ed9cb8146100f5575b600080fd5b6100a760048036038101906100a291906113ac565b6101ab565b005b6100c360048036038101906100be9190611408565b610275565b6040516100d09190611460565b60405180910390f35b6100f360048036038101906100ee919061147b565b6102be565b005b61010f600480360381019061010a919061147b565b610734565b005b61012b600480360381019061012691906114a8565b610957565b6040516101389190611503565b60405180910390f35b6101496109eb565b604051610156919061161a565b60405180910390f35b6101796004803603810190610174919061147b565b610af4565b6040516101869190611786565b60405180910390f35b6101a960048036038101906101a4919061147b565b610d0a565b005b6000808373ffffffffffffffffffffffffffffffffffffffff1673ffffffffffffffffffffffffffffffffffffffff16815260200190815260200160002081908060018154018082558091505060019003906000526020600020016000909190919091509080519060200190610222929190611151565b508173ffffffffffffffffffffffffffffffffffffffff167f124f4a6ee6006b9a10fcac9a51b1910a96b2e528b241f3c1b0a5ca12ab8601838260405161026991906117f2565b60405180910390a25050565b6004818051602081018201805184825260208301602085012081835280955050505050506000915054906101000a900473ffffffffffffffffffffffffffffffffffffffff1681565b6000600160003373ffffffffffffffffffffffffffffffffffffffff1673ffffffffffffffffffffffffffffffffffffffff16815260200190815260200160002060008373ffffffffffffffffffffffffffffffffffffffff1673ffffffffffffffffffffffffffffffffffffffff16815260200190815260200160002060006101000a81548160ff02191690831515021790555060005b600260003373ffffffffffffffffffffffffffffffffffffffff1673ffffffffffffffffffffffffffffffffffffffff168152602001908152602001600020805490508110156106a4578173ffffffffffffffffffffffffffffffffffffffff16600260003373ffffffffffffffffffffffffffffffffffffffff1673ffffffffffffffffffffffffffffffffffffffff168152602001908152602001600020828154811061040857610407611814565b5b9060005260206000200160000160009054906101000a900473ffffffffffffffffffffffffffffffffffffffff1673ffffffffffffffffffffffffffffffffffffffff16141561069157600260003373ffffffffffffffffffffffffffffffffffffffff1673ffffffffffffffffffffffffffffffffffffffff1681526020019081526020016000206001600260003373ffffffffffffffffffffffffffffffffffffffff1673ffffffffffffffffffffffffffffffffffffffff168152602001908152602001600020805490506104e0919061187c565b815481106104f1576104f0611814565b5b90600052602060002001600260003373ffffffffffffffffffffffffffffffffffffffff1673ffffffffffffffffffffffffffffffffffffffff168152602001908152602001600020828154811061054c5761054b611814565b5b906000526020600020016000820160009054906101000a900473ffffffffffffffffffffffffffffffffffffffff168160000160006101000a81548173ffffffffffffffffffffffffffffffffffffffff021916908373ffffffffffffffffffffffffffffffffffffffff1602179055506000820160149054906101000a900460ff168160000160146101000a81548160ff021916908315150217905550905050600260003373ffffffffffffffffffffffffffffffffffffffff1673ffffffffffffffffffffffffffffffffffffffff16815260200190815260200160002080548061063c5761063b6118b0565b5b60019003818190600052602060002001600080820160006101000a81549073ffffffffffffffffffffffffffffffffffffffff02191690556000820160146101000a81549060ff0219169055505090556106a4565b808061069c906118df565b915050610356565b50600360003373ffffffffffffffffffffffffffffffffffffffff1673ffffffffffffffffffffffffffffffffffffffff16815260200190815260200160002060008273ffffffffffffffffffffffffffffffffffffffff1673ffffffffffffffffffffffffffffffffffffffff16815260200190815260200160002060006101000a81549060ff021916905550565b6000600160003373ffffffffffffffffffffffffffffffffffffffff1673ffffffffffffffffffffffffffffffffffffffff16815260200190815260200160002060008373ffffffffffffffffffffffffffffffffffffffff1673ffffffffffffffffffffffffffffffffffffffff16815260200190815260200160002060006101000a81548160ff02191690831515021790555060005b600260003373ffffffffffffffffffffffffffffffffffffffff1673ffffffffffffffffffffffffffffffffffffffff16815260200190815260200160002080549050811015610953578173ffffffffffffffffffffffffffffffffffffffff16600260003373ffffffffffffffffffffffffffffffffffffffff1673ffffffffffffffffffffffffffffffffffffffff168152602001908152602001600020828154811061087e5761087d611814565b5b9060005260206000200160000160009054906101000a900473ffffffffffffffffffffffffffffffffffffffff1673ffffffffffffffffffffffffffffffffffffffff161415610940576000600260003373ffffffffffffffffffffffffffffffffffffffff1673ffffffffffffffffffffffffffffffffffffffff168152602001908152602001600020828154811061091b5761091a611814565b5b9060005260206000200160000160146101000a81548160ff0219169083151502179055505b808061094b906118df565b9150506107cc565b5050565b6000600160008473ffffffffffffffffffffffffffffffffffffffff1673ffffffffffffffffffffffffffffffffffffffff16815260200190815260200160002060008373ffffffffffffffffffffffffffffffffffffffff1673ffffffffffffffffffffffffffffffffffffffff16815260200190815260200160002060009054906101000a900460ff16905092915050565b6060600260003373ffffffffffffffffffffffffffffffffffffffff1673ffffffffffffffffffffffffffffffffffffffff168152602001908152602001600020805480602002602001604051908101604052809291908181526020016000905b82821015610aeb578382906000526020600020016040518060400160405290816000820160009054906101000a900473ffffffffffffffffffffffffffffffffffffffff1673ffffffffffffffffffffffffffffffffffffffff1673ffffffffffffffffffffffffffffffffffffffff1681526020016000820160149054906101000a900460ff16151515158152505081526020019060010190610a4c565b50505050905090565b60603373ffffffffffffffffffffffffffffffffffffffff168273ffffffffffffffffffffffffffffffffffffffff161480610bb65750600160008373ffffffffffffffffffffffffffffffffffffffff1673ffffffffffffffffffffffffffffffffffffffff16815260200190815260200160002060003373ffffffffffffffffffffffffffffffffffffffff1673ffffffffffffffffffffffffffffffffffffffff16815260200190815260200160002060009054906101000a900460ff165b610bf5576040517f08c379a0000000000000000000000000000000000000000000000000000000008152600401610bec90611974565b60405180910390fd5b6000808373ffffffffffffffffffffffffffffffffffffffff1673ffffffffffffffffffffffffffffffffffffffff168152602001908152602001600020805480602002602001604051908101604052809291908181526020016000905b82821015610cff578382906000526020600020018054610c72906119c3565b80601f0160208091040260200160405190810160405280929190818152602001828054610c9e906119c3565b8015610ceb5780601f10610cc057610100808354040283529160200191610ceb565b820191906000526020600020905b815481529060010190602001808311610cce57829003601f168201915b505050505081526020019060010190610c53565b505050509050919050565b60018060003373ffffffffffffffffffffffffffffffffffffffff1673ffffffffffffffffffffffffffffffffffffffff16815260200190815260200160002060008373ffffffffffffffffffffffffffffffffffffffff1673ffffffffffffffffffffffffffffffffffffffff16815260200190815260200160002060006101000a81548160ff021916908315150217905550600360003373ffffffffffffffffffffffffffffffffffffffff1673ffffffffffffffffffffffffffffffffffffffff16815260200190815260200160002060008273ffffffffffffffffffffffffffffffffffffffff1673ffffffffffffffffffffffffffffffffffffffff16815260200190815260200160002060009054906101000a900460ff1615610fbd5760005b600260003373ffffffffffffffffffffffffffffffffffffffff1673ffffffffffffffffffffffffffffffffffffffff16815260200190815260200160002080549050811015610fb7578173ffffffffffffffffffffffffffffffffffffffff16600260003373ffffffffffffffffffffffffffffffffffffffff1673ffffffffffffffffffffffffffffffffffffffff1681526020019081526020016000208281548110610ee257610ee1611814565b5b9060005260206000200160000160009054906101000a900473ffffffffffffffffffffffffffffffffffffffff1673ffffffffffffffffffffffffffffffffffffffff161415610fa4576001600260003373ffffffffffffffffffffffffffffffffffffffff1673ffffffffffffffffffffffffffffffffffffffff1681526020019081526020016000208281548110610f7f57610f7e611814565b5b9060005260206000200160000160146101000a81548160ff0219169083151502179055505b8080610faf906118df565b915050610e30565b5061114e565b600260003373ffffffffffffffffffffffffffffffffffffffff1673ffffffffffffffffffffffffffffffffffffffff16815260200190815260200160002060405180604001604052808373ffffffffffffffffffffffffffffffffffffffff168152602001600115158152509080600181540180825580915050600190039060005260206000200160009091909190915060008201518160000160006101000a81548173ffffffffffffffffffffffffffffffffffffffff021916908373ffffffffffffffffffffffffffffffffffffffff16021790555060208201518160000160146101000a81548160ff02191690831515021790555050506001600360003373ffffffffffffffffffffffffffffffffffffffff1673ffffffffffffffffffffffffffffffffffffffff16815260200190815260200160002060008373ffffffffffffffffffffffffffffffffffffffff1673ffffffffffffffffffffffffffffffffffffffff16815260200190815260200160002060006101000a81548160ff0219169083151502179055505b50565b82805461115d906119c3565b90600052602060002090601f01602090048101928261117f57600085556111c6565b82601f1061119857805160ff19168380011785556111c6565b828001600101855582156111c6579182015b828111156111c55782518255916020019190600101906111aa565b5b5090506111d391906111d7565b5090565b5b808211156111f05760008160009055506001016111d8565b5090565b6000604051905090565b600080fd5b600080fd5b600073ffffffffffffffffffffffffffffffffffffffff82169050919050565b600061123382611208565b9050919050565b61124381611228565b811461124e57600080fd5b50565b6000813590506112608161123a565b92915050565b600080fd5b600080fd5b6000601f19601f8301169050919050565b7f4e487b7100000000000000000000000000000000000000000000000000000000600052604160045260246000fd5b6112b982611270565b810181811067ffffffffffffffff821117156112d8576112d7611281565b5b80604052505050565b60006112eb6111f4565b90506112f782826112b0565b919050565b600067ffffffffffffffff82111561131757611316611281565b5b61132082611270565b9050602081019050919050565b82818337600083830152505050565b600061134f61134a846112fc565b6112e1565b90508281526020810184848401111561136b5761136a61126b565b5b61137684828561132d565b509392505050565b600082601f83011261139357611392611266565b5b81356113a384826020860161133c565b91505092915050565b600080604083850312156113c3576113c26111fe565b5b60006113d185828601611251565b925050602083013567ffffffffffffffff8111156113f2576113f1611203565b5b6113fe8582860161137e565b9150509250929050565b60006020828403121561141e5761141d6111fe565b5b600082013567ffffffffffffffff81111561143c5761143b611203565b5b6114488482850161137e565b91505092915050565b61145a81611228565b82525050565b60006020820190506114756000830184611451565b92915050565b600060208284031215611491576114906111fe565b5b600061149f84828501611251565b91505092915050565b600080604083850312156114bf576114be6111fe565b5b60006114cd85828601611251565b92505060206114de85828601611251565b9150509250929050565b60008115159050919050565b6114fd816114e8565b82525050565b600060208201905061151860008301846114f4565b92915050565b600081519050919050565b600082825260208201905092915050565b6000819050602082019050919050565b61155381611228565b82525050565b611562816114e8565b82525050565b60408201600082015161157e600085018261154a565b5060208201516115916020850182611559565b50505050565b60006115a38383611568565b60408301905092915050565b6000602082019050919050565b60006115c78261151e565b6115d18185611529565b93506115dc8361153a565b8060005b8381101561160d5781516115f48882611597565b97506115ff836115af565b9250506001810190506115e0565b5085935050505092915050565b6000602082019050818103600083015261163481846115bc565b905092915050565b600081519050919050565b600082825260208201905092915050565b6000819050602082019050919050565b600081519050919050565b600082825260208201905092915050565b60005b838110156116a2578082015181840152602081019050611687565b838111156116b1576000848401525b50505050565b60006116c282611668565b6116cc8185611673565b93506116dc818560208601611684565b6116e581611270565b840191505092915050565b60006116fc83836116b7565b905092915050565b6000602082019050919050565b600061171c8261163c565b6117268185611647565b93508360208202850161173885611658565b8060005b85811015611774578484038952815161175585826116f0565b945061176083611704565b925060208a0199505060018101905061173c565b50829750879550505050505092915050565b600060208201905081810360008301526117a08184611711565b905092915050565b600082825260208201905092915050565b60006117c482611668565b6117ce81856117a8565b93506117de818560208601611684565b6117e781611270565b840191505092915050565b6000602082019050818103600083015261180c81846117b9565b905092915050565b7f4e487b7100000000000000000000000000000000000000000000000000000000600052603260045260246000fd5b6000819050919050565b7f4e487b7100000000000000000000000000000000000000000000000000000000600052601160045260246000fd5b600061188782611843565b915061189283611843565b9250828210156118a5576118a461184d565b5b828203905092915050565b7f4e487b7100000000000000000000000000000000000000000000000000000000600052603160045260246000fd5b60006118ea82611843565b91507fffffffffffffffffffffffffffffffffffffffffffffffffffffffffffffffff82141561191d5761191c61184d565b5b600182019050919050565b7f596f7520646f6e27742068617665206163636573730000000000000000000000600082015250565b600061195e6015836117a8565b915061196982611928565b602082019050919050565b6000602082019050818103600083015261198d81611951565b9050919050565b7f4e487b7100000000000000000000000000000000000000000000000000000000600052602260045260246000fd5b600060028204905060018216806119db57607f821691505b602082108114156119ef576119ee611994565b5b5091905056fea26469706673582212208443ed808f8fd63a921ef7520214a9814a3d3ea708cd653958375629383fa6dd64736f6c63430008090033",
  "linkReferences": {},
  "deployedLinkReferences": {}
}